{
  "contractName": "Ccg",
  "abi": [
    {
      "constant": true,
      "inputs": [],
      "name": "name",
      "outputs": [
        {
          "name": "",
          "type": "string"
        }
      ],
      "payable": false,
      "stateMutability": "view",
      "type": "function"
    },
    {
      "constant": true,
      "inputs": [],
      "name": "cardCollection",
      "outputs": [
        {
          "name": "",
          "type": "address"
        }
      ],
      "payable": false,
      "stateMutability": "view",
      "type": "function"
    },
    {
      "constant": true,
      "inputs": [],
      "name": "version",
      "outputs": [
        {
          "name": "",
          "type": "string"
        }
      ],
      "payable": false,
      "stateMutability": "view",
      "type": "function"
    },
    {
      "constant": true,
      "inputs": [],
      "name": "owner",
      "outputs": [
        {
          "name": "",
          "type": "address"
        }
      ],
      "payable": false,
      "stateMutability": "view",
      "type": "function"
    },
    {
      "constant": false,
      "inputs": [
        {
          "name": "newOwner",
          "type": "address"
        }
      ],
      "name": "transferOwnership",
      "outputs": [],
      "payable": false,
      "stateMutability": "nonpayable",
      "type": "function"
    },
    {
      "anonymous": false,
      "inputs": [
        {
          "indexed": true,
          "name": "previousOwner",
          "type": "address"
        },
        {
          "indexed": true,
          "name": "newOwner",
          "type": "address"
        }
      ],
      "name": "OwnershipTransferred",
      "type": "event"
    }
  ],
  "bytecode": "0x6060604052336000806101000a81548173ffffffffffffffffffffffffffffffffffffffff021916908373ffffffffffffffffffffffffffffffffffffffff160217905550610579806100536000396000f30060606040526004361061006d576000357c0100000000000000000000000000000000000000000000000000000000900463ffffffff16806306fdde03146100725780633917999e1461010057806354fd4d50146101555780638da5cb5b146101e3578063f2fde38b14610238575b600080fd5b341561007d57600080fd5b610085610271565b6040518080602001828103825283818151815260200191508051906020019080838360005b838110156100c55780820151818401526020810190506100aa565b50505050905090810190601f1680156100f25780820380516001836020036101000a031916815260200191505b509250505060405180910390f35b341561010b57600080fd5b61011361030f565b604051808273ffffffffffffffffffffffffffffffffffffffff1673ffffffffffffffffffffffffffffffffffffffff16815260200191505060405180910390f35b341561016057600080fd5b610168610335565b6040518080602001828103825283818151815260200191508051906020019080838360005b838110156101a857808201518184015260208101905061018d565b50505050905090810190601f1680156101d55780820380516001836020036101000a031916815260200191505b509250505060405180910390f35b34156101ee57600080fd5b6101f66103d3565b604051808273ffffffffffffffffffffffffffffffffffffffff1673ffffffffffffffffffffffffffffffffffffffff16815260200191505060405180910390f35b341561024357600080fd5b61026f600480803573ffffffffffffffffffffffffffffffffffffffff169060200190919050506103f8565b005b60018054600181600116156101000203166002900480601f0160208091040260200160405190810160405280929190818152602001828054600181600116156101000203166002900480156103075780601f106102dc57610100808354040283529160200191610307565b820191906000526020600020905b8154815290600101906020018083116102ea57829003601f168201915b505050505081565b600360009054906101000a900473ffffffffffffffffffffffffffffffffffffffff1681565b60028054600181600116156101000203166002900480601f0160208091040260200160405190810160405280929190818152602001828054600181600116156101000203166002900480156103cb5780601f106103a0576101008083540402835291602001916103cb565b820191906000526020600020905b8154815290600101906020018083116103ae57829003601f168201915b505050505081565b6000809054906101000a900473ffffffffffffffffffffffffffffffffffffffff1681565b6000809054906101000a900473ffffffffffffffffffffffffffffffffffffffff1673ffffffffffffffffffffffffffffffffffffffff163373ffffffffffffffffffffffffffffffffffffffff1614151561045357600080fd5b600073ffffffffffffffffffffffffffffffffffffffff168173ffffffffffffffffffffffffffffffffffffffff161415151561048f57600080fd5b8073ffffffffffffffffffffffffffffffffffffffff166000809054906101000a900473ffffffffffffffffffffffffffffffffffffffff1673ffffffffffffffffffffffffffffffffffffffff167f8be0079c531659141344cd1fd0a4f28419497f9722a3daafe3b4186f6b6457e060405160405180910390a3806000806101000a81548173ffffffffffffffffffffffffffffffffffffffff021916908373ffffffffffffffffffffffffffffffffffffffff160217905550505600a165627a7a723058201719c36370d3fabd10f05c431b84845f1eb5ae0599b777a095a3f41a5641fcca0029",
  "source": "pragma solidity ^0.4.18;\nimport \"./Ownable.sol\";\nimport \"./CardCollection.sol\";\n\ncontract Ccg is Ownable {\n    // Ccg variables\n    string public name;\n    string public version;\n\n    // Card variables\n    CardCollection public cardCollection;\n    struct OwnedCardDetails {\n        uint index; // CardCollection index\n        uint8 numberOwned;\n    }\n\n    mapping(address => OwnedCardDetails[]) OwnedCards;\n\n    function _generateRandomNumberSet(uint mod, uint iterations) internal returns(uint[5]) {\n        /*\n        Rudementary random number generator. Relies on the reward for trying to get\n        the perfect block being less than the total best pack value\n        */\n        uint[5] memory rarityIterations;\n        bytes32 blockHash = block.blockhash(block.number-1);\n        for (uint index = 0; index < iterations; index++) {\n            rarityIterations[index] = uint(blockHash) % mod;\n            blockHash = keccak256(blockHash);\n        }\n        return rarityIterations;\n    }\n}\n",
  "sourcePath": "/Users/connormacdougall/Projects/ethereum-ccg-engine/contracts/Ccg.sol",
  "compiler": {
    "name": "solc",
    "version": "0.4.18+commit.9cf6e910.Emscripten.clang"
  },
  "schemaVersion": "1.0.1",
  "updatedAt": "2018-01-21T15:47:16.661Z"
}