{
  "contractName": "ExampleCcg",
  "abi": [
    {
      "constant": true,
      "inputs": [],
      "name": "packSize",
      "outputs": [
        {
          "name": "",
          "type": "uint256"
        }
      ],
      "payable": false,
      "stateMutability": "view",
      "type": "function"
    },
    {
      "constant": true,
      "inputs": [],
      "name": "name",
      "outputs": [
        {
          "name": "",
          "type": "string"
        }
      ],
      "payable": false,
      "stateMutability": "view",
      "type": "function"
    },
    {
      "constant": false,
      "inputs": [],
      "name": "purchasePack",
      "outputs": [],
      "payable": true,
      "stateMutability": "payable",
      "type": "function"
    },
    {
      "constant": true,
      "inputs": [],
      "name": "cardCollection",
      "outputs": [
        {
          "name": "",
          "type": "address"
        }
      ],
      "payable": false,
      "stateMutability": "view",
      "type": "function"
    },
    {
      "constant": true,
      "inputs": [],
      "name": "version",
      "outputs": [
        {
          "name": "",
          "type": "string"
        }
      ],
      "payable": false,
      "stateMutability": "view",
      "type": "function"
    },
    {
      "constant": true,
      "inputs": [
        {
          "name": "",
          "type": "uint256"
        }
      ],
      "name": "Rarity",
      "outputs": [
        {
          "name": "",
          "type": "string"
        }
      ],
      "payable": false,
      "stateMutability": "view",
      "type": "function"
    },
    {
      "constant": true,
      "inputs": [],
      "name": "owner",
      "outputs": [
        {
          "name": "",
          "type": "address"
        }
      ],
      "payable": false,
      "stateMutability": "view",
      "type": "function"
    },
    {
      "constant": true,
      "inputs": [
        {
          "name": "",
          "type": "uint256"
        }
      ],
      "name": "packDisplay",
      "outputs": [
        {
          "name": "",
          "type": "uint256"
        }
      ],
      "payable": false,
      "stateMutability": "view",
      "type": "function"
    },
    {
      "constant": false,
      "inputs": [
        {
          "name": "newOwner",
          "type": "address"
        }
      ],
      "name": "transferOwnership",
      "outputs": [],
      "payable": false,
      "stateMutability": "nonpayable",
      "type": "function"
    },
    {
      "anonymous": false,
      "inputs": [
        {
          "indexed": true,
          "name": "previousOwner",
          "type": "address"
        },
        {
          "indexed": true,
          "name": "newOwner",
          "type": "address"
        }
      ],
      "name": "OwnershipTransferred",
      "type": "event"
    }
  ],
  "bytecode": "0x60606040526080604051908101604052806040805190810160405280600681526020017f636f6d6d6f6e000000000000000000000000000000000000000000000000000081525081526020016040805190810160405280600481526020017f726172650000000000000000000000000000000000000000000000000000000081525081526020016040805190810160405280600481526020017f657069630000000000000000000000000000000000000000000000000000000081525081526020016040805190810160405280600981526020017f6c6567656e64617279000000000000000000000000000000000000000000000081525081525060059060046200010c92919062000158565b506005600b55336000806101000a81548173ffffffffffffffffffffffffffffffffffffffff021916908373ffffffffffffffffffffffffffffffffffffffff160217905550620002eb565b828054828255906000526020600020908101928215620001ac579160200282015b82811115620001ab5782518290805190602001906200019a929190620001bf565b509160200191906001019062000179565b5b509050620001bb919062000246565b5090565b828054600181600116156101000203166002900490600052602060002090601f016020900481019282601f106200020257805160ff191683800117855562000233565b8280016001018555821562000233579182015b828111156200023257825182559160200191906001019062000215565b5b50905062000242919062000277565b5090565b6200027491905b808211156200027057600081816200026691906200029f565b506001016200024d565b5090565b90565b6200029c91905b80821115620002985760008160009055506001016200027e565b5090565b90565b50805460018160011615610100020316600290046000825580601f10620002c75750620002e8565b601f016020900490600052602060002090810190620002e7919062000277565b5b50565b6109d080620002fb6000396000f300606060405260043610610099576000357c0100000000000000000000000000000000000000000000000000000000900463ffffffff16806306a628d41461009e57806306fdde03146100c7578063356708f0146101555780633917999e1461015f57806354fd4d50146101b45780638b023075146102425780638da5cb5b146102de57806391e8c9c314610333578063f2fde38b1461036a575b600080fd5b34156100a957600080fd5b6100b16103a3565b6040518082815260200191505060405180910390f35b34156100d257600080fd5b6100da6103a9565b6040518080602001828103825283818151815260200191508051906020019080838360005b8381101561011a5780820151818401526020810190506100ff565b50505050905090810190601f1680156101475780820380516001836020036101000a031916815260200191505b509250505060405180910390f35b61015d610447565b005b341561016a57600080fd5b61017261046e565b604051808273ffffffffffffffffffffffffffffffffffffffff1673ffffffffffffffffffffffffffffffffffffffff16815260200191505060405180910390f35b34156101bf57600080fd5b6101c7610494565b6040518080602001828103825283818151815260200191508051906020019080838360005b838110156102075780820151818401526020810190506101ec565b50505050905090810190601f1680156102345780820380516001836020036101000a031916815260200191505b509250505060405180910390f35b341561024d57600080fd5b6102636004808035906020019091905050610532565b6040518080602001828103825283818151815260200191508051906020019080838360005b838110156102a3578082015181840152602081019050610288565b50505050905090810190601f1680156102d05780820380516001836020036101000a031916815260200191505b509250505060405180910390f35b34156102e957600080fd5b6102f16105ee565b604051808273ffffffffffffffffffffffffffffffffffffffff1673ffffffffffffffffffffffffffffffffffffffff16815260200191505060405180910390f35b341561033e57600080fd5b6103546004808035906020019091905050610613565b6040518082815260200191505060405180910390f35b341561037557600080fd5b6103a1600480803573ffffffffffffffffffffffffffffffffffffffff1690602001909190505061062d565b005b600b5481565b60018054600181600116156101000203166002900480601f01602080910402602001604051908101604052809291908181526020018280546001816001161561010002031660029004801561043f5780601f106104145761010080835404028352916020019161043f565b820191906000526020600020905b81548152906001019060200180831161042257829003601f168201915b505050505081565b61044f610917565b610457610782565b905080600690600561046a92919061093f565b5050565b600360009054906101000a900473ffffffffffffffffffffffffffffffffffffffff1681565b60028054600181600116156101000203166002900480601f01602080910402602001604051908101604052809291908181526020018280546001816001161561010002031660029004801561052a5780601f106104ff5761010080835404028352916020019161052a565b820191906000526020600020905b81548152906001019060200180831161050d57829003601f168201915b505050505081565b60058181548110151561054157fe5b90600052602060002090016000915090508054600181600116156101000203166002900480601f0160208091040260200160405190810160405280929190818152602001828054600181600116156101000203166002900480156105e65780601f106105bb576101008083540402835291602001916105e6565b820191906000526020600020905b8154815290600101906020018083116105c957829003601f168201915b505050505081565b6000809054906101000a900473ffffffffffffffffffffffffffffffffffffffff1681565b60068160058110151561062257fe5b016000915090505481565b6000809054906101000a900473ffffffffffffffffffffffffffffffffffffffff1673ffffffffffffffffffffffffffffffffffffffff163373ffffffffffffffffffffffffffffffffffffffff1614151561068857600080fd5b600073ffffffffffffffffffffffffffffffffffffffff168173ffffffffffffffffffffffffffffffffffffffff16141515156106c457600080fd5b8073ffffffffffffffffffffffffffffffffffffffff166000809054906101000a900473ffffffffffffffffffffffffffffffffffffffff1673ffffffffffffffffffffffffffffffffffffffff167f8be0079c531659141344cd1fd0a4f28419497f9722a3daafe3b4186f6b6457e060405160405180910390a3806000806101000a81548173ffffffffffffffffffffffffffffffffffffffff021916908373ffffffffffffffffffffffffffffffffffffffff16021790555050565b61078a610917565b610792610917565b600080600080600080600060014303409650600095505b600b5486101561090957600a87600190048115156107c357fe5b0694508660405180826000191660001916815260200191505060405180910390209650600093506000925060009150600090505b60058110156108e4576009888260058110151561081057fe5b602002015114156108385760018410151561082f578580600190039650505b83806001019450505b6007888260058110151561084857fe5b6020020151148061086b57506008888260058110151561086457fe5b6020020151145b156108795782806001019350505b6005888260058110151561088957fe5b602002015114806108ac5750600688826005811015156108a557fe5b6020020151145b806108c95750600488826005811015156108c257fe5b6020020151145b156108d75781806001019250505b80806001019150506107f7565b8488876005811015156108f357fe5b60200201818152505085806001019650506107a9565b879850505050505050505090565b60a0604051908101604052806005905b60008152602001906001900390816109275790505090565b826005810192821561096e579160200282015b8281111561096d578251825591602001919060010190610952565b5b50905061097b919061097f565b5090565b6109a191905b8082111561099d576000816000905550600101610985565b5090565b905600a165627a7a72305820e72116cbeeef848eb2af9ab9823b315df182fdcc913f0a088d9c2a31f62b07fd0029",
  "source": "pragma solidity ^0.4.18;\nimport \"./Ccg.sol\";\n\ncontract ExampleCcg is Ccg {\n    string[] public Rarity = [\"common\", \"rare\", \"epic\", \"legendary\"];\n    uint[5] public packDisplay;\n    uint public packSize = 5;\n\n    function purchasePack() public payable {\n        uint[5] memory pack = ExampleCcg._generatePack();\n        packDisplay = pack;\n        // return pack;\n    }\n\n    function _generatePack() internal returns(uint[5]) {\n        /*\n        Function returns an array of cards opened by the user\n\n        Uses a 0-9 Pseudo random number generator to calc rarity:\n        9 - Legendary\n        7,8 = Epic\n        4,5,6 = Rare\n        0,1,2,3 = Common\n        */\n        uint[5] memory rarityIterations;\n        bytes32 blockHash = block.blockhash(block.number-1);\n        for (uint index = 0; index < packSize; index++) {\n            uint randomNum = uint(blockHash) % 10;\n            blockHash = keccak256(blockHash);\n            uint legendCount = 0;\n            uint epicCount = 0;\n            uint rareCount = 0;\n            // uint memory common_count = 0;\n            for (uint x = 0; x < rarityIterations.length; x++) {\n                if (rarityIterations[x] == 9) {\n                    if (legendCount >= 1) {index--;}\n                    legendCount++;\n                }\n                if (rarityIterations[x] == 7 || rarityIterations[x] == 8) {epicCount++;}\n                if (rarityIterations[x] == 5 || rarityIterations[x] == 6 || rarityIterations[x] == 4) {rareCount++;}\n            }\n            rarityIterations[index] = randomNum;\n        }\n        return rarityIterations;\n    }\n}",
  "sourcePath": "/Users/connormacdougall/Projects/ethereum-ccg-engine/contracts/ExampleCcg.sol",
  "compiler": {
    "name": "solc",
    "version": "0.4.18+commit.9cf6e910.Emscripten.clang"
  },
  "schemaVersion": "1.0.1",
  "updatedAt": "2018-01-22T18:56:17.158Z"
}