{
  "contractName": "ExampleCcg",
  "abi": [
    {
      "constant": true,
      "inputs": [],
      "name": "name",
      "outputs": [
        {
          "name": "",
          "type": "string"
        }
      ],
      "payable": false,
      "stateMutability": "view",
      "type": "function"
    },
    {
      "constant": false,
      "inputs": [],
      "name": "purchasePack",
      "outputs": [],
      "payable": true,
      "stateMutability": "payable",
      "type": "function"
    },
    {
      "constant": true,
      "inputs": [],
      "name": "cardCollection",
      "outputs": [
        {
          "name": "",
          "type": "address"
        }
      ],
      "payable": false,
      "stateMutability": "view",
      "type": "function"
    },
    {
      "constant": true,
      "inputs": [],
      "name": "version",
      "outputs": [
        {
          "name": "",
          "type": "string"
        }
      ],
      "payable": false,
      "stateMutability": "view",
      "type": "function"
    },
    {
      "constant": true,
      "inputs": [
        {
          "name": "",
          "type": "uint256"
        }
      ],
      "name": "Rarity",
      "outputs": [
        {
          "name": "",
          "type": "string"
        }
      ],
      "payable": false,
      "stateMutability": "view",
      "type": "function"
    },
    {
      "constant": true,
      "inputs": [],
      "name": "owner",
      "outputs": [
        {
          "name": "",
          "type": "address"
        }
      ],
      "payable": false,
      "stateMutability": "view",
      "type": "function"
    },
    {
      "constant": true,
      "inputs": [
        {
          "name": "",
          "type": "uint256"
        }
      ],
      "name": "packDisplay",
      "outputs": [
        {
          "name": "",
          "type": "uint256"
        }
      ],
      "payable": false,
      "stateMutability": "view",
      "type": "function"
    },
    {
      "constant": false,
      "inputs": [
        {
          "name": "newOwner",
          "type": "address"
        }
      ],
      "name": "transferOwnership",
      "outputs": [],
      "payable": false,
      "stateMutability": "nonpayable",
      "type": "function"
    },
    {
      "anonymous": false,
      "inputs": [
        {
          "indexed": true,
          "name": "previousOwner",
          "type": "address"
        },
        {
          "indexed": true,
          "name": "newOwner",
          "type": "address"
        }
      ],
      "name": "OwnershipTransferred",
      "type": "event"
    }
  ],
  "bytecode": "0x60606040526080604051908101604052806040805190810160405280600681526020017f636f6d6d6f6e000000000000000000000000000000000000000000000000000081525081526020016040805190810160405280600481526020017f726172650000000000000000000000000000000000000000000000000000000081525081526020016040805190810160405280600481526020017f657069630000000000000000000000000000000000000000000000000000000081525081526020016040805190810160405280600981526020017f6c6567656e646172790000000000000000000000000000000000000000000000815250815250600590600461010a929190610150565b50336000806101000a81548173ffffffffffffffffffffffffffffffffffffffff021916908373ffffffffffffffffffffffffffffffffffffffff1602179055506102c9565b82805482825590600052602060002090810192821561019f579160200282015b8281111561019e57825182908051906020019061018e9291906101b0565b5091602001919060010190610170565b5b5090506101ac9190610230565b5090565b828054600181600116156101000203166002900490600052602060002090601f016020900481019282601f106101f157805160ff191683800117855561021f565b8280016001018555821561021f579182015b8281111561021e578251825591602001919060010190610203565b5b50905061022c919061025c565b5090565b61025991905b80821115610255576000818161024c9190610281565b50600101610236565b5090565b90565b61027e91905b8082111561027a576000816000905550600101610262565b5090565b90565b50805460018160011615610100020316600290046000825580601f106102a757506102c6565b601f0160209004906000526020600020908101906102c5919061025c565b5b50565b6108a180620002d96000396000f30060606040526004361061008e576000357c0100000000000000000000000000000000000000000000000000000000900463ffffffff16806306fdde0314610093578063356708f0146101215780633917999e1461012b57806354fd4d50146101805780638b0230751461020e5780638da5cb5b146102aa57806391e8c9c3146102ff578063f2fde38b14610336575b600080fd5b341561009e57600080fd5b6100a661036f565b6040518080602001828103825283818151815260200191508051906020019080838360005b838110156100e65780820151818401526020810190506100cb565b50505050905090810190601f1680156101135780820380516001836020036101000a031916815260200191505b509250505060405180910390f35b61012961040d565b005b341561013657600080fd5b61013e610434565b604051808273ffffffffffffffffffffffffffffffffffffffff1673ffffffffffffffffffffffffffffffffffffffff16815260200191505060405180910390f35b341561018b57600080fd5b61019361045a565b6040518080602001828103825283818151815260200191508051906020019080838360005b838110156101d35780820151818401526020810190506101b8565b50505050905090810190601f1680156102005780820380516001836020036101000a031916815260200191505b509250505060405180910390f35b341561021957600080fd5b61022f60048080359060200190919050506104f8565b6040518080602001828103825283818151815260200191508051906020019080838360005b8381101561026f578082015181840152602081019050610254565b50505050905090810190601f16801561029c5780820380516001836020036101000a031916815260200191505b509250505060405180910390f35b34156102b557600080fd5b6102bd6105b4565b604051808273ffffffffffffffffffffffffffffffffffffffff1673ffffffffffffffffffffffffffffffffffffffff16815260200191505060405180910390f35b341561030a57600080fd5b61032060048080359060200190919050506105d9565b6040518082815260200191505060405180910390f35b341561034157600080fd5b61036d600480803573ffffffffffffffffffffffffffffffffffffffff169060200190919050506105f3565b005b60018054600181600116156101000203166002900480601f0160208091040260200160405190810160405280929190818152602001828054600181600116156101000203166002900480156104055780601f106103da57610100808354040283529160200191610405565b820191906000526020600020905b8154815290600101906020018083116103e857829003601f168201915b505050505081565b6104156107e8565b61041d610748565b9050806006906005610430929190610810565b5050565b600360009054906101000a900473ffffffffffffffffffffffffffffffffffffffff1681565b60028054600181600116156101000203166002900480601f0160208091040260200160405190810160405280929190818152602001828054600181600116156101000203166002900480156104f05780601f106104c5576101008083540402835291602001916104f0565b820191906000526020600020905b8154815290600101906020018083116104d357829003601f168201915b505050505081565b60058181548110151561050757fe5b90600052602060002090016000915090508054600181600116156101000203166002900480601f0160208091040260200160405190810160405280929190818152602001828054600181600116156101000203166002900480156105ac5780601f10610581576101008083540402835291602001916105ac565b820191906000526020600020905b81548152906001019060200180831161058f57829003601f168201915b505050505081565b6000809054906101000a900473ffffffffffffffffffffffffffffffffffffffff1681565b6006816005811015156105e857fe5b016000915090505481565b6000809054906101000a900473ffffffffffffffffffffffffffffffffffffffff1673ffffffffffffffffffffffffffffffffffffffff163373ffffffffffffffffffffffffffffffffffffffff1614151561064e57600080fd5b600073ffffffffffffffffffffffffffffffffffffffff168173ffffffffffffffffffffffffffffffffffffffff161415151561068a57600080fd5b8073ffffffffffffffffffffffffffffffffffffffff166000809054906101000a900473ffffffffffffffffffffffffffffffffffffffff1673ffffffffffffffffffffffffffffffffffffffff167f8be0079c531659141344cd1fd0a4f28419497f9722a3daafe3b4186f6b6457e060405160405180910390a3806000806101000a81548173ffffffffffffffffffffffffffffffffffffffff021916908373ffffffffffffffffffffffffffffffffffffffff16021790555050565b6107506107e8565b61075c600a6005610761565b905090565b6107696107e8565b6107716107e8565b60008060014303409150600090505b848110156107dc5785826001900481151561079757fe5b0683826005811015156107a657fe5b60200201818152505081604051808260001916600019168152602001915050604051809103902091508080600101915050610780565b82935050505092915050565b60a0604051908101604052806005905b60008152602001906001900390816107f85790505090565b826005810192821561083f579160200282015b8281111561083e578251825591602001919060010190610823565b5b50905061084c9190610850565b5090565b61087291905b8082111561086e576000816000905550600101610856565b5090565b905600a165627a7a72305820340d627a392aa69a6e5e10f6ca15c01d580abc3aec69ce1cb30ded84c9d7c8af0029",
  "source": "pragma solidity ^0.4.18;\nimport \"./Ccg.sol\";\n\ncontract ExampleCcg is Ccg {\n    string[] public Rarity = [\"common\", \"rare\", \"epic\", \"legendary\"];\n    uint[5] public packDisplay;\n\n    function purchasePack() public payable {\n        uint[5] memory pack = ExampleCcg._generatePack();\n        packDisplay = pack;\n        // return pack;\n    }\n\n    function _generatePack() internal returns(uint[5]) {\n        /*\n        Function returns an array of cards opened by the user\n\n        Uses a 0-9 Pseudo random number generator to calc rarity:\n        9 - Legendary\n        7,8 = Epic\n        5,6,7 = Rare\n        0,1,2,3,4 = Common\n        */\n        return Ccg._generateRandomNumberSet(10, 5);\n        // return Ccg._generateRandomNumberSet(10, 5);\n    }\n}",
  "sourcePath": "/Users/connormacdougall/Projects/ethereum-ccg-engine/contracts/ExampleCcg.sol",
  "compiler": {
    "name": "solc",
    "version": "0.4.18+commit.9cf6e910.Emscripten.clang"
  },
  "schemaVersion": "1.0.1",
  "updatedAt": "2018-01-21T15:47:17.308Z"
}